{
  "_format": "hh3-artifact-1",
  "contractName": "LandRecords",
  "sourceName": "contracts/LandRecords.sol",
  "abi": [
    {
      "anonymous": false,
      "inputs": [
        {
          "indexed": true,
          "internalType": "uint256",
          "name": "id",
          "type": "uint256"
        },
        {
          "indexed": false,
          "internalType": "string",
          "name": "fileHash",
          "type": "string"
        },
        {
          "indexed": true,
          "internalType": "address",
          "name": "uploader",
          "type": "address"
        },
        {
          "indexed": false,
          "internalType": "uint256",
          "name": "timestamp",
          "type": "uint256"
        }
      ],
      "name": "DocumentStored",
      "type": "event"
    },
    {
      "inputs": [],
      "name": "docCount",
      "outputs": [
        {
          "internalType": "uint256",
          "name": "",
          "type": "uint256"
        }
      ],
      "stateMutability": "view",
      "type": "function"
    },
    {
      "inputs": [
        {
          "internalType": "uint256",
          "name": "",
          "type": "uint256"
        }
      ],
      "name": "documents",
      "outputs": [
        {
          "internalType": "uint256",
          "name": "id",
          "type": "uint256"
        },
        {
          "internalType": "string",
          "name": "fileHash",
          "type": "string"
        },
        {
          "internalType": "address",
          "name": "uploader",
          "type": "address"
        },
        {
          "internalType": "uint256",
          "name": "timestamp",
          "type": "uint256"
        }
      ],
      "stateMutability": "view",
      "type": "function"
    },
    {
      "inputs": [
        {
          "internalType": "uint256",
          "name": "_id",
          "type": "uint256"
        }
      ],
      "name": "getDocument",
      "outputs": [
        {
          "internalType": "string",
          "name": "",
          "type": "string"
        },
        {
          "internalType": "address",
          "name": "",
          "type": "address"
        },
        {
          "internalType": "uint256",
          "name": "",
          "type": "uint256"
        }
      ],
      "stateMutability": "view",
      "type": "function"
    },
    {
      "inputs": [
        {
          "internalType": "string",
          "name": "_fileHash",
          "type": "string"
        }
      ],
      "name": "storeDocument",
      "outputs": [
        {
          "internalType": "uint256",
          "name": "",
          "type": "uint256"
        }
      ],
      "stateMutability": "nonpayable",
      "type": "function"
    },
    {
      "inputs": [
        {
          "internalType": "uint256",
          "name": "_id",
          "type": "uint256"
        },
        {
          "internalType": "string",
          "name": "_fileHash",
          "type": "string"
        }
      ],
      "name": "verifyHash",
      "outputs": [
        {
          "internalType": "bool",
          "name": "",
          "type": "bool"
        }
      ],
      "stateMutability": "view",
      "type": "function"
    }
  ],
  "bytecode": "0x6080604052348015600e575f5ffd5b506107a08061001c5f395ff3fe608060405234801561000f575f5ffd5b5060043610610055575f3560e01c80633f9b250a146100595780634c4dc6e01461008457806375c6e7811461009b578063b644f350146100be578063c2ed2b05146100d1575b5f5ffd5b61006c6100673660046103b2565b6100f4565b60405161007b939291906103f7565b60405180910390f35b61008d60015481565b60405190815260200161007b565b6100ae6100a93660046104c3565b6101ea565b604051901515815260200161007b565b61008d6100cc366004610507565b610224565b6100e46100df3660046103b2565b6102fa565b60405161007b9493929190610541565b60605f5f5f5f5f8681526020019081526020015f206040518060800160405290815f820154815260200160018201805461012d90610575565b80601f016020809104026020016040519081016040528092919081815260200182805461015990610575565b80156101a45780601f1061017b576101008083540402835291602001916101a4565b820191905f5260205f20905b81548152906001019060200180831161018757829003601f168201915b505050918352505060028201546001600160a01b031660208083019190915260039092015460409182015290820151908201516060909201519097919650945092505050565b5f81805190602001205f5f8581526020019081526020015f2060010160405161021391906105ad565b604051809103902014905092915050565b600180545f91826102348361061e565b90915550506040805160808101825260018054808352602080840187815233858701524260608601525f928352908290529390208251815592519192919082019061027f908261068e565b506040828101516002830180546001600160a01b0319166001600160a01b0390921691909117905560609092015160039091015560015490513391907f0455e20dcf2fcde7005ca318367c1a7204585dd30ebce04e3fdeffc2159caf9b906102ea9086904290610749565b60405180910390a3505060015490565b5f602081905290815260409020805460018201805491929161031b90610575565b80601f016020809104026020016040519081016040528092919081815260200182805461034790610575565b80156103925780601f1061036957610100808354040283529160200191610392565b820191905f5260205f20905b81548152906001019060200180831161037557829003601f168201915b50505050600283015460039093015491926001600160a01b031691905084565b5f602082840312156103c2575f5ffd5b5035919050565b5f81518084528060208401602086015e5f602082860101526020601f19601f83011685010191505092915050565b606081525f61040960608301866103c9565b6001600160a01b039490941660208301525060400152919050565b634e487b7160e01b5f52604160045260245ffd5b5f82601f830112610447575f5ffd5b813567ffffffffffffffff81111561046157610461610424565b604051601f8201601f19908116603f0116810167ffffffffffffffff8111828210171561049057610490610424565b6040528181528382016020018510156104a7575f5ffd5b816020850160208301375f918101602001919091529392505050565b5f5f604083850312156104d4575f5ffd5b82359150602083013567ffffffffffffffff8111156104f1575f5ffd5b6104fd85828601610438565b9150509250929050565b5f60208284031215610517575f5ffd5b813567ffffffffffffffff81111561052d575f5ffd5b61053984828501610438565b949350505050565b848152608060208201525f61055960808301866103c9565b6001600160a01b03949094166040830152506060015292915050565b600181811c9082168061058957607f821691505b6020821081036105a757634e487b7160e01b5f52602260045260245ffd5b50919050565b5f5f83546105ba81610575565b6001821680156105d157600181146105e657610613565b60ff1983168652811515820286019350610613565b865f5260205f205f5b8381101561060b578154888201526001909101906020016105ef565b505081860193505b509195945050505050565b5f6001820161063b57634e487b7160e01b5f52601160045260245ffd5b5060010190565b601f82111561068957805f5260205f20601f840160051c810160208510156106675750805b601f840160051c820191505b81811015610686575f8155600101610673565b50505b505050565b815167ffffffffffffffff8111156106a8576106a8610424565b6106bc816106b68454610575565b84610642565b6020601f8211600181146106ee575f83156106d75750848201515b5f19600385901b1c1916600184901b178455610686565b5f84815260208120601f198516915b8281101561071d57878501518255602094850194600190920191016106fd565b508482101561073a57868401515f19600387901b60f8161c191681555b50505050600190811b01905550565b604081525f61075b60408301856103c9565b9050826020830152939250505056fea2646970667358221220f6fd80d07f445fa56cf6fd8f20f6938220e4676211de3c802256c407edeb9a9664736f6c634300081c0033",
  "linkReferences": {},
  "deployedLinkReferences": {},
  "immutableReferences": {},
  "inputSourceName": "project/contracts/LandRecords.sol",
  "buildInfoId": "solc-0_8_28-58b16271c1ec65ad6caf4a14641d3191229ee04d"
}